:1000000071C000008EC000008CC000008AC00000DB
:1000100088C0000086C0000084C0000082C00000CC
:1000200080C000007EC000007CC000007AC00000DC
:1000300078C0000076C0000074C0000072C00000EC
:1000400070C000006EC000006CC000006AC00000FC
:1000500068C0000066C0000064C0000075C00000F9
:1000600060C000005EC000005CC000005AC000001C
:1000700058C0000056C0000054C0000052C000002C
:1000800050C000004EC000004CC000004AC000003C
:1000900048C0000046C0000044C0000042C000004C
:1000A00040C000003EC000003CC000003AC000005C
:1000B00038C0000036C0000034C0000032C000006C
:1000C00030C000002EC000002CC000002AC000007C
:1000D00028C0000026C0000024C0000022C000008C
:1000E00020C0000011241FBECFEFD1E2DEBFCDBF84
:1000F00000E00CBF22E0A4E0B2E001C01D92AF30EE
:10010000B207E1F712E0A0E0B2E0EEE2F5E000E0D5
:100110000BBF02C007900D92A430B107D9F746D1AA
:1001200004C26ECF089521E030E040E050E060E08E
:1001300070E0CB011FD1709305026093040268EC5C
:1001400070E080E090E06DC01F920F920FB60F92AA
:1001500011242F933F938F939F93AF93BF938091DD
:10016000070290910802A0910902B0910A02309111
:10017000060223E0230F2D3720F40196A11DB11DA7
:1001800005C026E8230F0296A11DB11D209306028B
:100190008093070290930802A0930902B0930A0289
:1001A00080910B0290910C02A0910D02B0910E0271
:1001B0000196A11DB11D80930B0290930C02A09398
:1001C0000D02B0930E02BF91AF919F918F913F911D
:1001D0002F910F900FBE0F901F9018953FB7F89476
:1001E00080910B0290910C02A0910D02B0910E0231
:1001F00026B5A89B05C02F3F19F00196A11DB11D82
:100200003FBF6627782F892F9A2F620F711D811D9E
:10021000911D42E0660F771F881F991F4A95D1F7FD
:100220000895CF92DF92EF92FF92CF93DF936B010D
:100230007C01D4DFEB01C114D104E104F10479F0B5
:10024000C0D0CCDF6C1B7D0B683E7340A0F381E017
:10025000C81AD108E108F108C851DC4FECCFDF9192
:10026000CF91FF90EF90DF90CF900895789484B570
:10027000826084BD84B5816084BD85B5826085BDA2
:1002800085B5816085BDEEE6F0E080818160808388
:10029000E1E8F0E01082808182608083808181606B
:1002A0008083E0E8F0E0808181608083E1EBF0E032
:1002B000808184608083E0EBF0E0808181608083D6
:1002C000E1E9F0E0808182608083808181608083C9
:1002D000E0E9F0E0808181608083E1EAF0E0808104
:1002E00082608083808181608083E0EAF0E08081A9
:1002F00081608083E1E2F1E080818260808380819F
:1003000081608083E0E2F1E0808181608083EAE7C0
:10031000F0E080818460808380818260808380813E
:10032000816080838081806880831092C1000895FD
:10033000CF93DF9300D01F92CDB7DEB79B01AC0106
:10034000611571058105910559F069833A834B83E5
:100350005C83D9D029813A814B815C8133D003C041
:1003600060E070E0CB010F900F900F900F90DF9145
:10037000CF910895CF92DF92EF92FF926B017C01B3
:1003800062177307840795075CF4CA01B9016C19F9
:100390007D098E099F09CCDF6C0D7D1D8E1D9F1D73
:1003A000FF90EF90DF90CF90089508955FDFFDDF1D
:1003B000B9DEC0E0D0E0B7DE2097E9F30E9400008C
:1003C000FACF0895052E97FB16F400940FD057FD31
:1003D00005D01ED007FC02D046F408C050954095C9
:1003E000309521953F4F4F4F5F4F089590958095E1
:1003F000709561957F4F8F4F9F4F08952BD0A59F8C
:10040000900DB49F900DA49F800D911D112408950F
:10041000A1E21A2EAA1BBB1BFD010DC0AA1FBB1F08
:10042000EE1FFF1FA217B307E407F50720F0A21B7A
:10043000B30BE40BF50B661F771F881F991F1A94E7
:1004400069F760957095809590959B01AC01BD0111
:10045000CF010895A29FB001B39FC001A39F700D6B
:10046000811D1124911DB29F700D811D1124911DBC
:1004700008958F929F92AF92BF92CF92DF92EF92A8
:10048000FF92CF93DF93EC01688179818A819B8110
:10049000611571058105910521F464E279ED8BE523
:1004A00097E02DE133EF41E050E08CDF49015A0144
:1004B0009B01AC01A7EAB1E4A1DF6B017C01ACEECA
:1004C000B4EFA50194012DD0C60ED71EE81EF91E6B
:1004D000F7FE06C081E0C81AD108E10880E8F80AF2
:1004E000C882D982EA82FB82C701B6019F77DF9179
:1004F000CF91FF90EF90DF90CF90BF90AF909F9003
:100500008F900895B6CF80E092E0B3CF6093000261
:100510007093010280930202909303020895B7FF43
:0E0520006DCF6CDF821B930B0895F894FFCF14
:04052E0001000000C8
:00000001FF
